{
    "contractName": "Create",
    "abi": [
        {
            "inputs": [],
            "stateMutability": "nonpayable",
            "type": "constructor"
        },
        {
            "anonymous": false,
            "inputs": [
                {
                    "indexed": true,
                    "internalType": "uint256",
                    "name": "candidateId",
                    "type": "uint256"
                },
                {
                    "indexed": false,
                    "internalType": "string",
                    "name": "name",
                    "type": "string"
                },
                {
                    "indexed": false,
                    "internalType": "string",
                    "name": "age",
                    "type": "string"
                },
                {
                    "indexed": false,
                    "internalType": "string",
                    "name": "image",
                    "type": "string"
                },
                {
                    "indexed": false,
                    "internalType": "uint256",
                    "name": "voteCount",
                    "type": "uint256"
                },
                {
                    "indexed": false,
                    "internalType": "address",
                    "name": "_address",
                    "type": "address"
                },
                {
                    "indexed": false,
                    "internalType": "string",
                    "name": "ipfs",
                    "type": "string"
                }
            ],
            "name": "CandidateCreate",
            "type": "event"
        },
        {
            "anonymous": false,
            "inputs": [
                {
                    "indexed": true,
                    "internalType": "uint256",
                    "name": "voter_voterId",
                    "type": "uint256"
                },
                {
                    "indexed": false,
                    "internalType": "string",
                    "name": "voter_name",
                    "type": "string"
                },
                {
                    "indexed": false,
                    "internalType": "string",
                    "name": "voter_image",
                    "type": "string"
                },
                {
                    "indexed": false,
                    "internalType": "address",
                    "name": "voter_address",
                    "type": "address"
                },
                {
                    "indexed": false,
                    "internalType": "uint256",
                    "name": "voter_allowed",
                    "type": "uint256"
                },
                {
                    "indexed": false,
                    "internalType": "bool",
                    "name": "voter_voted",
                    "type": "bool"
                },
                {
                    "indexed": false,
                    "internalType": "uint256",
                    "name": "voter_vote",
                    "type": "uint256"
                },
                {
                    "indexed": false,
                    "internalType": "string",
                    "name": "voter_ipfs",
                    "type": "string"
                }
            ],
            "name": "VoterCreate",
            "type": "event"
        },
        {
            "inputs": [],
            "name": "_candidateId",
            "outputs": [
                {
                    "internalType": "uint256",
                    "name": "_value",
                    "type": "uint256"
                }
            ],
            "stateMutability": "view",
            "type": "function"
        },
        {
            "inputs": [],
            "name": "_voterId",
            "outputs": [
                {
                    "internalType": "uint256",
                    "name": "_value",
                    "type": "uint256"
                }
            ],
            "stateMutability": "view",
            "type": "function"
        },
        {
            "inputs": [
                {
                    "internalType": "uint256",
                    "name": "",
                    "type": "uint256"
                }
            ],
            "name": "candidateAddress",
            "outputs": [
                {
                    "internalType": "address",
                    "name": "",
                    "type": "address"
                }
            ],
            "stateMutability": "view",
            "type": "function"
        },
        {
            "inputs": [
                {
                    "internalType": "address",
                    "name": "",
                    "type": "address"
                }
            ],
            "name": "candidates",
            "outputs": [
                {
                    "internalType": "uint256",
                    "name": "candidateId",
                    "type": "uint256"
                },
                {
                    "internalType": "string",
                    "name": "name",
                    "type": "string"
                },
                {
                    "internalType": "string",
                    "name": "age",
                    "type": "string"
                },
                {
                    "internalType": "string",
                    "name": "image",
                    "type": "string"
                },
                {
                    "internalType": "uint256",
                    "name": "voteCount",
                    "type": "uint256"
                },
                {
                    "internalType": "address",
                    "name": "_address",
                    "type": "address"
                },
                {
                    "internalType": "string",
                    "name": "ipfs",
                    "type": "string"
                }
            ],
            "stateMutability": "view",
            "type": "function"
        },
        {
            "inputs": [],
            "name": "getCandidate",
            "outputs": [
                {
                    "internalType": "address[]",
                    "name": "",
                    "type": "address[]"
                }
            ],
            "stateMutability": "view",
            "type": "function"
        },
        {
            "inputs": [
                {
                    "internalType": "address",
                    "name": "_address",
                    "type": "address"
                }
            ],
            "name": "getCandidateData",
            "outputs": [
                {
                    "internalType": "string",
                    "name": "",
                    "type": "string"
                },
                {
                    "internalType": "string",
                    "name": "",
                    "type": "string"
                },
                {
                    "internalType": "uint256",
                    "name": "",
                    "type": "uint256"
                },
                {
                    "internalType": "string",
                    "name": "",
                    "type": "string"
                },
                {
                    "internalType": "uint256",
                    "name": "",
                    "type": "uint256"
                },
                {
                    "internalType": "string",
                    "name": "",
                    "type": "string"
                },
                {
                    "internalType": "address",
                    "name": "",
                    "type": "address"
                }
            ],
            "stateMutability": "view",
            "type": "function"
        },
        {
            "inputs": [],
            "name": "getCandidateLength",
            "outputs": [
                {
                    "internalType": "uint256",
                    "name": "",
                    "type": "uint256"
                }
            ],
            "stateMutability": "view",
            "type": "function"
        },
        {
            "inputs": [],
            "name": "getVotedVoterList",
            "outputs": [
                {
                    "internalType": "address[]",
                    "name": "",
                    "type": "address[]"
                }
            ],
            "stateMutability": "view",
            "type": "function"
        },
        {
            "inputs": [
                {
                    "internalType": "address",
                    "name": "_address",
                    "type": "address"
                }
            ],
            "name": "getVoterData",
            "outputs": [
                {
                    "internalType": "uint256",
                    "name": "",
                    "type": "uint256"
                },
                {
                    "internalType": "string",
                    "name": "",
                    "type": "string"
                },
                {
                    "internalType": "string",
                    "name": "",
                    "type": "string"
                },
                {
                    "internalType": "address",
                    "name": "",
                    "type": "address"
                },
                {
                    "internalType": "string",
                    "name": "",
                    "type": "string"
                },
                {
                    "internalType": "uint256",
                    "name": "",
                    "type": "uint256"
                },
                {
                    "internalType": "bool",
                    "name": "",
                    "type": "bool"
                }
            ],
            "stateMutability": "view",
            "type": "function"
        },
        {
            "inputs": [],
            "name": "getVoterLength",
            "outputs": [
                {
                    "internalType": "uint256",
                    "name": "",
                    "type": "uint256"
                }
            ],
            "stateMutability": "view",
            "type": "function"
        },
        {
            "inputs": [],
            "name": "getVoterList",
            "outputs": [
                {
                    "internalType": "address[]",
                    "name": "",
                    "type": "address[]"
                }
            ],
            "stateMutability": "view",
            "type": "function"
        },
        {
            "inputs": [
                {
                    "internalType": "address",
                    "name": "_address",
                    "type": "address"
                },
                {
                    "internalType": "string",
                    "name": "_age",
                    "type": "string"
                },
                {
                    "internalType": "string",
                    "name": "_name",
                    "type": "string"
                },
                {
                    "internalType": "string",
                    "name": "_image",
                    "type": "string"
                },
                {
                    "internalType": "string",
                    "name": "_ipfs",
                    "type": "string"
                }
            ],
            "name": "setCandidate",
            "outputs": [],
            "stateMutability": "nonpayable",
            "type": "function"
        },
        {
            "inputs": [
                {
                    "internalType": "address",
                    "name": "_candidateAddress",
                    "type": "address"
                },
                {
                    "internalType": "uint256",
                    "name": "_candidateVoteId",
                    "type": "uint256"
                }
            ],
            "name": "vote",
            "outputs": [],
            "stateMutability": "nonpayable",
            "type": "function"
        },
        {
            "inputs": [
                {
                    "internalType": "uint256",
                    "name": "",
                    "type": "uint256"
                }
            ],
            "name": "votedVoters",
            "outputs": [
                {
                    "internalType": "address",
                    "name": "",
                    "type": "address"
                }
            ],
            "stateMutability": "view",
            "type": "function"
        },
        {
            "inputs": [
                {
                    "internalType": "address",
                    "name": "_address",
                    "type": "address"
                },
                {
                    "internalType": "string",
                    "name": "_name",
                    "type": "string"
                },
                {
                    "internalType": "string",
                    "name": "_image",
                    "type": "string"
                },
                {
                    "internalType": "string",
                    "name": "_ipfs",
                    "type": "string"
                }
            ],
            "name": "voterRight",
            "outputs": [],
            "stateMutability": "nonpayable",
            "type": "function"
        },
        {
            "inputs": [
                {
                    "internalType": "address",
                    "name": "",
                    "type": "address"
                }
            ],
            "name": "voters",
            "outputs": [
                {
                    "internalType": "uint256",
                    "name": "voter_voterId",
                    "type": "uint256"
                },
                {
                    "internalType": "string",
                    "name": "voter_name",
                    "type": "string"
                },
                {
                    "internalType": "string",
                    "name": "voter_image",
                    "type": "string"
                },
                {
                    "internalType": "address",
                    "name": "voter_address",
                    "type": "address"
                },
                {
                    "internalType": "uint256",
                    "name": "voter_allowed",
                    "type": "uint256"
                },
                {
                    "internalType": "bool",
                    "name": "voter_voted",
                    "type": "bool"
                },
                {
                    "internalType": "uint256",
                    "name": "voter_vote",
                    "type": "uint256"
                },
                {
                    "internalType": "string",
                    "name": "voter_ipfs",
                    "type": "string"
                }
            ],
            "stateMutability": "view",
            "type": "function"
        },
        {
            "inputs": [
                {
                    "internalType": "uint256",
                    "name": "",
                    "type": "uint256"
                }
            ],
            "name": "votersAddress",
            "outputs": [
                {
                    "internalType": "address",
                    "name": "",
                    "type": "address"
                }
            ],
            "stateMutability": "view",
            "type": "function"
        },
        {
            "inputs": [],
            "name": "votingOrganizer",
            "outputs": [
                {
                    "internalType": "address",
                    "name": "",
                    "type": "address"
                }
            ],
            "stateMutability": "view",
            "type": "function"
        }
    ],
    "bytecode": "608060405234801561001057600080fd5b50600280546001600160a01b03191633179055611907806100326000396000f3fe608060405234801561001057600080fd5b50600436106101165760003560e01c80638ab66a90116100a2578063a738896711610071578063a738896714610274578063b28d92ae1461027e578063b9be315214610286578063c91ec71214610290578063f7522a83146102a357600080fd5b80638ab66a90146101f95780638e9456851461021f5780638fb4cd8014610227578063a3ec138d1461024d57600080fd5b806343242daa116100e957806343242daa146101985780635cc48aa7146101ab5780635f74bbde146101be57806370218b85146101d15780637831ffb3146101e657600080fd5b80630361419e1461011b57806305ad45a4146101305780632a466ac7146101475780633a88251a1461016d575b600080fd5b61012e610129366004611277565b6102ab565b005b6006545b6040519081526020015b60405180910390f35b61015a610155366004611310565b610488565b60405161013e9796959493929190611378565b61018061017b3660046113ee565b61071b565b6040516001600160a01b03909116815260200161013e565b6101806101a63660046113ee565b610745565b600254610180906001600160a01b031681565b61012e6101cc366004611407565b610755565b6101d9610896565b60405161013e9190611431565b6101806101f43660046113ee565b6108f8565b61020c610207366004611310565b610908565b60405161013e979695949392919061147e565b6101d9610b71565b61023a610235366004611310565b610bd1565b60405161013e97969594939291906114f5565b61026061025b366004611310565b610de7565b60405161013e98979695949392919061155f565b6001546101349081565b6101d9610fd3565b6000546101349081565b61012e61029e3660046115d5565b611033565b600354610134565b6002546001600160a01b031633146103065760405162461bcd60e51b81526020600482015260196024820152782cb7ba9030b932903737ba103a34329037b933b0b734bd32b960391b60448201526064015b60405180910390fd5b610314600080546001019055565b600080546001600160a01b0386168252600760205260409091206004810154156103795760405162461bcd60e51b8152602060048201526016602482015275165bdd481a185d9948185b1c9958591e481d9bdd195960521b60448201526064016102fd565b600160048201819055810161038e868261171c565b506002810161039d858261171c565b506003810180546001600160a01b0319166001600160a01b0388161790558181556103e8600682015560058101805460ff19169055600781016103e0848261171c565b506006805460018101825560008290527ff652222313e28459528d920b65115c16c04f3efc82aaedc97be59f3f377c0d3f0180546001600160a01b0319166001600160a01b038916179055600482015460058301549183015460405185937f0d1b980df89c1a3954567752ee1e92bdf546b205af1cc94b471ae6e71b8f859c93610478938b938b938e939260ff909116918c906117dc565b60405180910390a2505050505050565b6001600160a01b038082166000908152600460208190526040822080549181015460058201546002830180546060978897968896889688968896956001840195600385019460060192169087906104de90611693565b80601f016020809104026020016040519081016040528092919081815260200182805461050a90611693565b80156105575780601f1061052c57610100808354040283529160200191610557565b820191906000526020600020905b81548152906001019060200180831161053a57829003601f168201915b5050505050965085805461056a90611693565b80601f016020809104026020016040519081016040528092919081815260200182805461059690611693565b80156105e35780601f106105b8576101008083540402835291602001916105e3565b820191906000526020600020905b8154815290600101906020018083116105c657829003601f168201915b505050505095508380546105f690611693565b80601f016020809104026020016040519081016040528092919081815260200182805461062290611693565b801561066f5780601f106106445761010080835404028352916020019161066f565b820191906000526020600020905b81548152906001019060200180831161065257829003601f168201915b5050505050935081805461068290611693565b80601f01602080910402602001604051908101604052809291908181526020018280546106ae90611693565b80156106fb5780601f106106d0576101008083540402835291602001916106fb565b820191906000526020600020905b8154815290600101906020018083116106de57829003601f168201915b505050505091509650965096509650965096509650919395979092949650565b6003818154811061072b57600080fd5b6000918252602090912001546001600160a01b0316905081565b6006818154811061072b57600080fd5b336000908152600760205260409020600581015460ff16156107b25760405162461bcd60e51b8152602060048201526016602482015275165bdd481a185d9948185b1c9958591e481d9bdd195960521b60448201526064016102fd565b80600401546000036108065760405162461bcd60e51b815260206004820152601b60248201527f596f7520617265206e6f7420616c6c6f77656420746f20766f7465000000000060448201526064016102fd565b6005808201805460ff191660019081179091556006830184905581549081019091557f036b6384b5eca791c62761152d0c79bb0604c104a5fb6f4eb0703f3154bb3db00180546001600160a01b031916331790556004808201546001600160a01b038516600090815260208390526040812090920180549192909161088c90849061183a565b9091555050505050565b606060038054806020026020016040519081016040528092919081815260200182805480156108ee57602002820191906000526020600020905b81546001600160a01b031681526001909101906020018083116108d0575b5050505050905090565b6005818154811061072b57600080fd5b6004602052600090815260409020805460018201805491929161092a90611693565b80601f016020809104026020016040519081016040528092919081815260200182805461095690611693565b80156109a35780601f10610978576101008083540402835291602001916109a3565b820191906000526020600020905b81548152906001019060200180831161098657829003601f168201915b5050505050908060020180546109b890611693565b80601f01602080910402602001604051908101604052809291908181526020018280546109e490611693565b8015610a315780601f10610a0657610100808354040283529160200191610a31565b820191906000526020600020905b815481529060010190602001808311610a1457829003601f168201915b505050505090806003018054610a4690611693565b80601f0160208091040260200160405190810160405280929190818152602001828054610a7290611693565b8015610abf5780601f10610a9457610100808354040283529160200191610abf565b820191906000526020600020905b815481529060010190602001808311610aa257829003601f168201915b5050505060048301546005840154600685018054949592946001600160a01b03909216935090610aee90611693565b80601f0160208091040260200160405190810160405280929190818152602001828054610b1a90611693565b8015610b675780601f10610b3c57610100808354040283529160200191610b67565b820191906000526020600020905b815481529060010190602001808311610b4a57829003601f168201915b5050505050905087565b606060058054806020026020016040519081016040528092919081815260200182805480156108ee576020028201919060005260206000209081546001600160a01b031681526001909101906020018083116108d0575050505050905090565b6001600160a01b03808216600090815260076020819052604082208054600382015460048301546005840154600185018054979860609889988b988a988a9889989197600284019691909116949290930192909160ff909116908690610c3690611693565b80601f0160208091040260200160405190810160405280929190818152602001828054610c6290611693565b8015610caf5780601f10610c8457610100808354040283529160200191610caf565b820191906000526020600020905b815481529060010190602001808311610c9257829003601f168201915b50505050509550848054610cc290611693565b80601f0160208091040260200160405190810160405280929190818152602001828054610cee90611693565b8015610d3b5780601f10610d1057610100808354040283529160200191610d3b565b820191906000526020600020905b815481529060010190602001808311610d1e57829003601f168201915b50505050509450828054610d4e90611693565b80601f0160208091040260200160405190810160405280929190818152602001828054610d7a90611693565b8015610dc75780601f10610d9c57610100808354040283529160200191610dc7565b820191906000526020600020905b815481529060010190602001808311610daa57829003601f168201915b505050505092509650965096509650965096509650919395979092949650565b60076020526000908152604090208054600182018054919291610e0990611693565b80601f0160208091040260200160405190810160405280929190818152602001828054610e3590611693565b8015610e825780601f10610e5757610100808354040283529160200191610e82565b820191906000526020600020905b815481529060010190602001808311610e6557829003601f168201915b505050505090806002018054610e9790611693565b80601f0160208091040260200160405190810160405280929190818152602001828054610ec390611693565b8015610f105780601f10610ee557610100808354040283529160200191610f10565b820191906000526020600020905b815481529060010190602001808311610ef357829003601f168201915b505050600384015460048501546005860154600687015460078801805497986001600160a01b039095169793965060ff90921694509291610f5090611693565b80601f0160208091040260200160405190810160405280929190818152602001828054610f7c90611693565b8015610fc95780601f10610f9e57610100808354040283529160200191610fc9565b820191906000526020600020905b815481529060010190602001808311610fac57829003601f168201915b5050505050905088565b606060068054806020026020016040519081016040528092919081815260200182805480156108ee576020028201919060005260206000209081546001600160a01b031681526001909101906020018083116108d0575050505050905090565b6002546001600160a01b031633146110895760405162461bcd60e51b81526020600482015260196024820152782cb7ba9030b932903737ba103a34329037b933b0b734bd32b960391b60448201526064016102fd565b611097600180546001019055565b60006110a260015490565b6001600160a01b0387166000908152600460205260409020909150600281016110cb878261171c565b50600181016110da868261171c565b50600381016110e9858261171c565b50600060048201556005810180546001600160a01b0319166001600160a01b0389161790556006810161111c848261171c565b50600380546001810182556000919091527fc2575a0e9e593c00f959f8c92f12db2869c3395a3b0502d05e2516446f71f85b0180546001600160a01b0319166001600160a01b038916179055600481015460405183917fd297f12b256bb8485a6013fb5e302017018123e99a0ebb20756c09e1707b4b90916111a79189918b918a918e908b90611861565b60405180910390a250505050505050565b80356001600160a01b03811681146111cf57600080fd5b919050565b634e487b7160e01b600052604160045260246000fd5b600082601f8301126111fb57600080fd5b813567ffffffffffffffff80821115611216576112166111d4565b604051601f8301601f19908116603f0116810190828211818310171561123e5761123e6111d4565b8160405283815286602085880101111561125757600080fd5b836020870160208301376000602085830101528094505050505092915050565b6000806000806080858703121561128d57600080fd5b611296856111b8565b9350602085013567ffffffffffffffff808211156112b357600080fd5b6112bf888389016111ea565b945060408701359150808211156112d557600080fd5b6112e1888389016111ea565b935060608701359150808211156112f757600080fd5b50611304878288016111ea565b91505092959194509250565b60006020828403121561132257600080fd5b61132b826111b8565b9392505050565b6000815180845260005b818110156113585760208185018101518683018201520161133c565b506000602082860101526020601f19601f83011685010191505092915050565b60e08152600061138b60e083018a611332565b828103602084015261139d818a611332565b905087604084015282810360608401526113b78188611332565b905085608084015282810360a08401526113d18186611332565b91505060018060a01b03831660c083015298975050505050505050565b60006020828403121561140057600080fd5b5035919050565b6000806040838503121561141a57600080fd5b611423836111b8565b946020939093013593505050565b6020808252825182820181905260009190848201906040850190845b818110156114725783516001600160a01b03168352928401929184019160010161144d565b50909695505050505050565b87815260e06020820152600061149760e0830189611332565b82810360408401526114a98189611332565b905082810360608401526114bd8188611332565b608084018790526001600160a01b03861660a085015283810360c085015290506114e78185611332565b9a9950505050505050505050565b87815260e06020820152600061150e60e0830189611332565b82810360408401526115208189611332565b6001600160a01b0388166060850152838103608085015290506115438187611332565b60a0840195909552505090151560c09091015295945050505050565b60006101008a83528060208401526115798184018b611332565b9050828103604084015261158d818a611332565b6001600160a01b03891660608501526080840188905286151560a085015260c0840186905283810360e085015290506115c68185611332565b9b9a5050505050505050505050565b600080600080600060a086880312156115ed57600080fd5b6115f6866111b8565b9450602086013567ffffffffffffffff8082111561161357600080fd5b61161f89838a016111ea565b9550604088013591508082111561163557600080fd5b61164189838a016111ea565b9450606088013591508082111561165757600080fd5b61166389838a016111ea565b9350608088013591508082111561167957600080fd5b50611686888289016111ea565b9150509295509295909350565b600181811c908216806116a757607f821691505b6020821081036116c757634e487b7160e01b600052602260045260246000fd5b50919050565b601f82111561171757600081815260208120601f850160051c810160208610156116f45750805b601f850160051c820191505b8181101561171357828155600101611700565b5050505b505050565b815167ffffffffffffffff811115611736576117366111d4565b61174a816117448454611693565b846116cd565b602080601f83116001811461177f57600084156117675750858301515b600019600386901b1c1916600185901b178555611713565b600085815260208120601f198616915b828110156117ae5788860151825594840194600190910190840161178f565b50858210156117cc5787850151600019600388901b60f8161c191681555b5050505050600190811b01905550565b60e0815260006117ef60e083018a611332565b8281036020840152611801818a611332565b6001600160a01b038916604085015260608401889052861515608085015260a0840186905283810360c085015290506114e78185611332565b8082018082111561185b57634e487b7160e01b600052601160045260246000fd5b92915050565b60c08152600061187460c0830189611332565b82810360208401526118868189611332565b9050828103604084015261189a8188611332565b606084018790526001600160a01b038616608085015283810360a085015290506118c48185611332565b999850505050505050505056fea2646970667358221220b4ff42243c7284f56156709317ee5c24b40cbbaba9eac3b063d922474af4fce264736f6c63430008110033",
    "sourcePath": "d:/blockchain_project/contracts/VotingContract.sol",
    "compiler": {
        "name": "solc",
        "version": "0.8.17+commit.8df45f5f"
    },
    "functionHashes": {
        "_candidateId()": "a7388967",
        "_voterId()": "b9be3152",
        "candidateAddress(uint256)": "3a88251a",
        "candidates(address)": "8ab66a90",
        "getCandidate()": "70218b85",
        "getCandidateData(address)": "2a466ac7",
        "getCandidateLength()": "f7522a83",
        "getVotedVoterList()": "8e945685",
        "getVoterData(address)": "8fb4cd80",
        "getVoterLength()": "05ad45a4",
        "getVoterList()": "b28d92ae",
        "setCandidate(address,string,string,string,string)": "c91ec712",
        "vote(address,uint256)": "5f74bbde",
        "votedVoters(uint256)": "7831ffb3",
        "voterRight(address,string,string,string)": "0361419e",
        "voters(address)": "a3ec138d",
        "votersAddress(uint256)": "43242daa",
        "votingOrganizer()": "5cc48aa7"
    },
    "gasEstimates": {
        "creation": {
            "codeDepositCost": "1281400",
            "executionCost": "25570",
            "totalCost": "1306970"
        },
        "external": {
            "_candidateId()": "2309",
            "_voterId()": "2353",
            "candidateAddress(uint256)": "4704",
            "candidates(address)": "infinite",
            "getCandidate()": "infinite",
            "getCandidateData(address)": "infinite",
            "getCandidateLength()": "2391",
            "getVotedVoterList()": "infinite",
            "getVoterData(address)": "infinite",
            "getVoterLength()": "2316",
            "getVoterList()": "infinite",
            "setCandidate(address,string,string,string,string)": "infinite",
            "vote(address,uint256)": "126058",
            "votedVoters(uint256)": "4725",
            "voterRight(address,string,string,string)": "infinite",
            "voters(address)": "infinite",
            "votersAddress(uint256)": "4637",
            "votingOrganizer()": "2382"
        }
    }
}